:020000041000EA
:1000000000B5324B212058609868022188439860DF
:10001000D860186158612E4B002199600221596106
:100020000121F02299502B49196001219960352056
:1000300000F044F80222904214D00621196600F024
:1000400034F8196E01211966002018661A6600F04E
:100050002CF8196E196E196E052000F02FF8012189
:100060000842F9D1002199601B49196000215960AB
:100070001A491B48016001219960EB211966A021F2
:10008000196600F012F800219960164914480160C1
:100090000121996001BC002800D000471248134993
:1000A000086003C880F30888084703B5996A0420EC
:1000B0000142FBD001200142F8D103BD02B5186610
:1000C0001866FFF7F2FF186E186E02BD00000240BE
:1000D000000000180000070000035F00212200005C
:1000E000F4000018222000A00001001008ED00E03C
:1000F00000000000000000000000000074B24E7A12
:1001000000200420F7010010C3010010C5010010F9
:10011000C1010010C1010010C1010010C101001097
:10012000C1010010C1010010C1010010C701001081
:10013000C1010010C1010010C9010010CB01001065
:10014000CD010010CD010010CD010010CD01001037
:10015000CD010010CD010010CD010010CD01001027
:10016000CD010010CD010010CD010010CD01001017
:10017000CD010010CD010010CD010010CD01001007
:10018000CD010010CD010010CD010010CD010010F7
:10019000CD010010CD010010CD010010CD010010E7
:1001A000CD010010CD010010CD010010CD010010D7
:1001B000CD010010CD010010CD010010CD010010C7
:1001C00000BE00BE00BE00BE00BE00BEEFF3058054
:1001D000103800BEF2EB8871EC5F0510146005105A
:1001E0003402001090A31AE700201F49086006C8D7
:1001F00081F3088810471D48006800282FD10DA4FE
:100200000ECC002902D000F012F8F9E71849194A7B
:10021000002000E001C19142FCD1174988471749ED
:1002200088471749884700BEFDE701C901C29A42C5
:10023000FBD3704714600510C0000020080D00209B
:100240005C6C051000000420000004205C6C0510AC
:10025000001004200010042000000000704709482E
:100260000BF08BFA0047000008ED00E0000000D022
:10027000280D002048DB0220450101106104001018
:10028000010101105756000006005250ABB36053F5
:100290005046051006005250861C030260460510A9
:1002A000060052505422A29D684605100500525087
:1002B000DE65F4685C6C0510F8B5C04610B5064CF8
:1002C0002378002B07D1054B002B02D0044800E017
:1002D00000BF0123237010BD700E0020000000003D
:1002E00068800110044B10B5002B03D0034904486B
:1002F00000E000BF10BDC04600000000740E0020EA
:100300006880011030B585B00BF020FE00281DD1AB
:100310000BF0DEFC134811F0B5FD134B134A1449E2
:1003200014480BF09FFD002815D1134811F0AAFDC9
:100330006946124B0A0031CB31C21B781370104B47
:10034000186800230D2215F06BFFF1E70D4811F03E
:1003500099FD05B030BD0C4811F094FD01200FF05F
:10036000CFFEC046808001103075000004004000C0
:1003700098800110A4800110C4800110D080011069
:100380002CDA022068800110B080011000B591B015
:1003900008E01449684617F049FD00281DD11248AD
:1003A00011F070FD0123114A10685B42402269463A
:1003B00015F0D8FF0028F5D000236A46135469468B
:1003C0000B4811F08FFD0B49684617F02FFD0028F0
:1003D000DFD1094811F056FDE4E76946074811F0FE
:1003E00081FDDFE718810110288101102CDA02203D
:1003F000E0800110D0800110F880011044810110CC
:1004000010B584B08024640003AB019301230093F2
:10041000002322000D490E4816F0B0F902AB0193FB
:1004200005230093002322000A490B4816F0A6F981
:100430000023009301220021402015F085FE074B88
:10044000186016F043FA04B010BDC0466481011074
:1004500005030010748101108D0300102CDA0220B6
:1004600010B511F04BFD0449044811F03BFDFFF7B6
:10047000C7FF002010BDC046808101108C81011093
:10048000034B1B6802201840431E9841C0B27047BE
:1004900000C00640EFF3108072B6034B1B68002BC0
:1004A000FBD0BFF35F8F70472C0100D0BFF35F8F8D
:1004B000024B00221A6080F3108870472C0100D094
:1004C000F8B506000C001500FFF7E4FFE308F71885
:1004D000F15C07222240012393400B4205D1DBB29D
:1004E0000B433B70FFF7E2FFF8BD210028000FF03F
:1004F000A5FEF0B583B00600019114001F00FFF7C0
:10050000C9FF00E00134BC420CD8E308F518F35CE5
:100510000721214001228A401A42F3D1D2B21A4364
:100520002A7001E001246442FFF7C0FF002C02DBC7
:10053000200003B0F0BD019B002BF9D008980FF00C
:100540007DFE000070B505000C00FFF7A3FFE30877
:10055000EE18EA5C07210C400123A340134204D0AB
:100560009A433270FFF7A2FF70BD034B034A2C3150
:1005700003480FF0C9FDC046A48101102482011078
:10058000C4810110002307E0054A9A189200BFF3C6
:100590005F8F0021116001331F2BF5D97047C046D2
:1005A00040000034054A1078431CDBB21370172B4F
:1005B00002D9130010221A707047C046B00B0020F9
:1005C00000B583B00100044B00931F231822034899
:1005D000FFF78FFF03B000BD34820110FC14002030
:1005E00010B58300084A944663441C684022624068
:1005F000C02414408022520113431C60C000034BEE
:100600009C466044416010BD04C001400040014070
:1006100080000B4B9C46604400290DD00823002A23
:100620000CD004221343026853400C221340802252
:1006300052011043036070470023F0E70022F1E706
:1006400004C00140002909D08000094B9C46604449
:1006500080239B0118430223036070478000044BF2
:100660009C466044C0239B01184302230360F4E7C7
:1006700004C0014070B5D0231B061B689D00094CC7
:100680002C59204207D19B002043064C18510D20C5
:1006900000F03EF970BD044B044ACC2104480FF031
:1006A00033FDC04650D7002050820110288301102E
:1006B0007C82011010B50400D0231B061B689B0030
:1006C0000A4A9B5818420BD00D2000F03BFAD02369
:1006D0001B061B6805499B005A58A2435A5010BD7F
:1006E000034B044AD62104480FF00EFD50D70020DA
:1006F000D8820110048301107C820110072303407B
:100700009B00C00899403C308000014BC1507047AD
:1007100000400140F8B507000C0016001D00FFF76F
:10072000EDFFFB089B00ED18072038408000844057
:10073000002E04D080239B011D432C60F8BDC023F4
:100740009B011D432C60F9E710B5D0231B061B68E5
:10075000002B03D0024BFFF7DDFF10BD014BFAE782
:10076000304101400041014010B501238340D022B7
:100770001206936293610521FFF732FF10BD00005E
:10078000074B9B68103080001950BFF35F8FBFF399
:100790005F8F044B0021196082F310887047C046B8
:1007A00000ED00E0240100D010B5091A081F0A4B23
:1007B0009C466144094A914208D8C30706D44010B8
:1007C0004005400D064B184380B210BD054B064A4C
:1007D000A32106480FF098FCFC070000FE0F000064
:1007E00000E0FFFF5C830110E88501108C8301109D
:1007F00010B5091A04394C08090B08D14905490DEF
:10080000064A11430180064B2343438010BD054B2C
:10081000054AAB2105480FF077FCC04600F0FFFF0A
:1008200000F8FFFFE8830110BC8501108C830110E4
:1008300001238340034A10681840431E9841C0B208
:100840007047C04600E100E0002904D0034B186067
:10085000034B18607047034B1860FBE780E200E031
:1008600000E100E080E100E010B5012383401800C2
:10087000FFF7EAFF10BD000001238340014A136027
:100880007047C04600E200E0024B9B6810308000D9
:10089000C058704700ED00E010B5FFF7F5FF0028E5
:1008A00005D0054BC01A2F2803D8012010BD002009
:1008B000FCE70020FAE7C046B40B002070B5040046
:1008C0000D00EFF3108672B60C4B1B68002BFBD0AB
:1008D000BFF35F8F2000FFF7D7FF094B984201D08D
:1008E000A84205D1320029002000FFF749FF70BD62
:1008F000044B054A862105480FF006FC240100D070
:10090000CD010010F88301101C8601108C830110AA
:10091000F0B5DE4657464E464546E0B589B08146BD
:1009200001911500EFF3108A72B6744B1B68002B0F
:10093000FBD0BFF35F8F724B0027DF57002F40DBE8
:100940007C00E419A4006F4824180622A2566C4BC0
:100950001A706D4B9A684B4610339B00D3589846DB
:100960001E001B1A2F2B38D9684B98452FD105AE86
:10097000674B33807B009B46D8198000614B9846BB
:10098000404402306349FFF70FFF7080624BB38031
:10099000FF23B371F571019B07935F44BF00474488
:1009A0000ECE0EC701231C43A04652464146484680
:1009B000FFF7E6FE09B0F0BCBB46B246A946A0462A
:1009C000F0BD564B564AD72156480FF09DFB564B6B
:1009D000534ADE2153480FF097FBC04340440C219B
:1009E00010F020FD002912D101239E43B3463300AD
:1009F0000026DA79AA4211D90621595600290CDBC2
:100A00004A00521892001E003E4B9B18F1E7474BDC
:100A1000434AEA2143480FF077FB1E00002E3AD0EC
:100A200005AB434A1A80813A5A800623F356029353
:100A3000002B17DA3F4805AB9B469880029A9A71C3
:100A4000DD71019A0792301D2100FFF7ADFEB080E5
:100A5000B7717B00DB199B002A4FFF185B4607CB61
:100A600007C7A2E77800C0198000264BC0180430E1
:100A7000321DB388D90A1C2907D15B0559150231EB
:100A800049005118FFF790FED5E72B4B2B4AB121B7
:100A900024480FF039FB05AE1D4B33807B000293D9
:100AA000D8198000174A9046020042440392901CD5
:100AB0001849FFF779FE7080039A101D5946FFF719
:100AC00073FEB0801E4B5A464146521A5241534360
:100AD0001B0DB371F571019A0792029B9C46674406
:100AE000BF0047440ECE0EC7114B5A461380813BC0
:100AF000538001231C43A04657E7C046240100D081
:100B000039DB0220B40B002000ED00E0CD01001025
:100B100000A1FFFFE40B002001BDFFFF30840110A6
:100B2000048601108C830110588401108084011008
:100B30000148000001BD0000F4840110F48501109B
:100B4000AAAA0000F0B5CE46474680B583B006009D
:100B50000D00EFF3108872B6564B1B68002BFBD0CC
:100B6000BFF35F8F544B9A6834001034A300D758FA
:100B7000524B9F4207D0AF4200D198E00197504BB3
:100B8000FB1A2F2B09D9424639003000FFF7F8FD38
:100B900003B0C0BCB946B046F0BD3000FFF748FE18
:100BA000814600213000FFF75FFEBFF35F8FEFF358
:100BB0000581002901D08C4211D10123019C9C4365
:100BC0000022A368AB4212D00622A256002A0DDBF7
:100BD00053009B189B002200394CE418F1E73621A2
:100BE000384B394AFF3139480FF08EFA2200AB42B8
:100BF00056D106256557002D38DB6B005B199A002E
:100C00002F4B9B189A68A260DA79E27106229A56F5
:100C1000A2719B795BB2002B0FDA2D48A0806B008C
:100C20005B199B00264AD3182A4A117899711570CE
:100C300049463000FFF718FEA5E7201D6B005B1941
:100C40009B001F4A9B181A1D9B88D90A1C2907D193
:100C50005B055B15023359005118FFF7A5FDDDE771
:100C60001D4B1E4AB12119480FF04EFA002912D12E
:100C7000002A0ED0FF239371194B9380154A1378E5
:100C8000A371184B0E49641A644163431B0D137022
:100C9000CEE70A4FF2E7201D1349FFF7A9FDC7E78A
:100CA0006A21124B084AFF3108480FF02DFA034F12
:100CB00069E7C046240100D000ED00E0CD0100103E
:100CC000B40B00200C850110D48501108C83011019
:100CD00001BD000039DB0220F4840110F48501100D
:100CE00001BDFFFFAAAA0000EE0B00204085011005
:100CF00010B5032304009C43064A944664442268CA
:100D00001840C000FC3383409A43130081400B43DA
:100D1000236010BD00E400E070B5012101432E4BBB
:100D2000CB1A2F2B28D8EFF30583002B2BD0EFF312
:100D3000108C72B6294A1268002AFBD0BFF35F8F6D
:100D4000274A0400244D641B64416243120D54B2CF
:100D5000244A92689B00D2588A421BD00022032A60
:100D600032D853009B189B001B49CB189B795BB270
:100D7000A3421FD00132F2E7C7211B4B1B4A490097
:100D80001B480FF0C1F992211A4B184AFF3118483D
:100D90000FF0BAF9134A92681749D150174B1A78D5
:100DA00082711C70BFF35F8F0C4B00221A608CF3B2
:100DB000108870BD0D005300991889006918FF262E
:100DC0008E710F4A8A80E9E7D1210E4B074A49000C
:100DD00007480FF099F9C046B40B0020240100D059
:100DE000AAAA000000ED00E048850110A0850110CE
:100DF0008C83011070850110CD01001039DB0220B9
:100E000001BDFFFF7C8501100022044B02E0044974
:100E100002C30132072AFAD97047C04600E400E055
:100E20008080808000B583B00100064B00930523CD
:100E300000220548FFF75DFB002801DB1F23181A7D
:100E400003B000BD8485011045DB0220024B9C46A7
:100E500061448900016070474000003410B504000F
:100E6000FFF7A0FB01002000FFF7F0FF01235B422A
:100E70006360BFF35F8F10BD10B50400FFF792FBF6
:100E800001002000FFF7E2FF01235B4263600023C3
:100E90002372BFF35F8F10BD034B9C4661448900F2
:100EA0000160BFF35F8F70474000003410B504004D
:100EB0000120FFF785FB01002000FFF7EDFF10BDCB
:100EC00070B505000C00080000F0F6FE094920008E
:100ED00000F036FEFFF766FB074B9C46604480003F
:100EE00068602C75D0231B061B786B75A400034B20
:100EF000E55070BDFD11001040000034E4C4002036
:100F000010B5084B1A68EFF3108172B61368002B06
:100F1000FCD0BFF35F8F034813F060FF0020002177
:100F200010BDC04674D9002010B5002922D0036836
:100F30001B7B99421ED8174B9C466144090183686C
:100F40009C4661440C684968002A19D003681B7BE1
:100F50009A4215D883680F488446624412019A1851
:100F600010685368020001208B4201D80ED0002087
:100F7000C0B210BD084B094A3C2109480FF0C4F823
:100F8000054B064A3C2106480FF0BEF8A242EFD8B6
:100F9000EDE7C046FFFFFF0F04880110848A0110AF
:100FA000B087011010B500291ED0037B99421BD8D1
:100FB0004B005B18033B0468A4466344002919D026
:100FC000002A1DD0914221D0002A25D0047BA242C4
:100FD00022D80468500080180338201881701978CE
:100FE00000291FD11A7010BD104B114A68211148F9
:100FF0000FF08AF8104B114A6F310E480FF084F849
:101000000F4B0E4A70210B480FF07EF80D4B0B4A28
:10101000712108480FF078F8044B054A682105480B
:101020000FF072F841701A70DDE7C0462888011091
:10103000F08A011044880110AC880110CC8A01109C
:10104000B8880110C488011070B506000D001400A6
:10105000002914D0002A14D08068736898470028AB
:1010600006D0220029003000FFF79CFF280007E08F
:101070002A0021003000FFF795FF200000E010005B
:1010800070BD0800FCE70000F0B583B005000092D9
:1010900001930AAB1C780BAB1F78002C26D0036899
:1010A0005A7B944207D10123002B19D1002C3BD14C
:1010B000200003B0F0BD002C0CD01A7B944209D85C
:1010C0001A6863001B19033BD3189B78002BEBD0E5
:1010D0000123E9E73E4B3F4A68213F480FF014F8EF
:1010E0003E4B3F4A67213F480FF00EF803689C7B58
:1010F000002CDBD012D01A7B94420FD86200121958
:10110000033A19688C46624451789973002900D1DA
:10111000D9730023937053701370C7E72C4B2D4A7B
:1011200068212D480EF0F0FF002C3AD02B681B7B75
:101130009C4236D82C4BE3181B01AA6894466344A2
:10114000009A1A60019A5A60089A9A60099ADA60BD
:101150002E68002C2BD030D0337B9C422DD86300DE
:101160001B19033B32689446634400229A705A70FC
:101170001A70717B22003000FFF766FF70738442A3
:1011800000D095E7287D009A019B00F021FD061E06
:1011900001D0002F17D00C9B002B00D188E71E70C8
:1011A00086E7124B124A3C210E480EF0ADFF114B60
:1011B000114AA52108480EF0A7FF054B054A6821F2
:1011C00005480EF0A1FF2868210000F039FFE2E792
:1011D00028880110F08A011044880110DC88011071
:1011E000FC8A0110B0870110FFFFFF0F0488011077
:1011F000848A0110AC870110E08A0110F0B5DE4648
:1012000057464E464546E0B58BB0099000230893FB
:101210008200B54BD658370052E0B44BB44A3F2158
:10122000B4480EF071FFB44BB44A3C21B4480EF000
:101230006BFF002901D1002869D10021404600F050
:10124000F5FEA04219D12A686B6806920793AB6835
:101250009846EB689A464346002B14D0002C18D0D1
:101260003B681B7B9C4214D8631EFA68D35C0893CE
:101270001B0218433861002015E0A24BA24A8E21C0
:101280009F480EF041FFA14B9F4A92219C480EF0CF
:101290003BFF994B9E4A412199480EF035FF0023B0
:1012A0009A46984600207B68BFF35F8F00221A6041
:1012B00086F310884346002B32D1002800D10CE180
:1012C00000F0FAFB02000B1EA7DB002000210690B5
:1012D00007917868EFF3108672B601680029FCD098
:1012E000BFF35F8F396888464C7B002CD7D09AD0EB
:1012F000097B8C4297D8874965182D01B9688C46BF
:10130000654428686968801A9941002991DD2A6836
:101310006B68099800F05CFC00239A469846C2E787
:10132000089B1B022343994651461800C0470500FD
:101330000E007A68EFF3108B72B6136859424B4176
:10134000D9B2002BF9D1BFF35F8F002E1EDB002E28
:1013500046DD3B69002B47D04B456DD100F0ACFB1F
:1013600002000B1E6EDB52197341002B70DB002B49
:1013700072DB0021049101310391029451460191E5
:10138000414600913800FFF77FFE4CE03B69002B9F
:10139000DDD04B4514D1069A079B521BB341002B5D
:1013A00014DB002B16DB0021049101310391029420
:1013B00051460191414600913800FFF765FE32E049
:1013C000554B514AA1214E480EF09EFE0122524239
:1013D000524BE6E7454B464A3F2146480EF094FE05
:1013E000002E01D1002DB4D13B68002C50D05A7B87
:1013F000944237D1012100294AD1DA7B002A4DD10C
:101400009A7B002A03D1DA7B002A5AD19C73DC73C1
:10141000002C5CD03B681B7B9C4258D8FA68013C8E
:10142000135D0133135500233B617A68BFF35F8F6F
:1014300013608BF3108843E7374B334AA4213048BD
:101440000EF062FE294B2A4A3F212A480EF05CFE2C
:1014500001225242314B8AE7244B254A3F2125483D
:101460000EF052FE002C0DD01A7B94420AD8620076
:101470001219033A1868844662449278002ABAD056
:101480000121B8E7264B274A682127480EF03CFE89
:10149000264B274AF62124480EF036FE002A0AD0B1
:1014A000197B8A4207D851008A18033A19688C467A
:1014B00062445470A4E71A4B1A4A68211A480EF085
:1014C00023FE1C4B1A4AFB2117480EF01DFE0A4B47
:1014D0000F4A41210A480EF017FE0BB0F0BCBB4684
:1014E000B246A946A046F0BDE4C40020A88601107B
:1014F000508A0110C486011004880110848A0110EA
:10150000B087011004890110688A01101C8901103C
:10151000A88A0110FFFFFF0F28890110FFFFFF7F3E
:1015200028880110F08A0110448801106489011094
:10153000BC8A01108889011010B50C4B5B68002B28
:1015400004D00A210A48FFF781FC10BD074C230094
:10155000084A1021206800F079FC032000F0A0FA6E
:1015600003212000FFF7ACFCEBE7C046FC0B00209A
:1015700074D90020290F001010B5064B5B68002BB2
:1015800001D0044810BD044B044A5E2104480EF00B
:10159000BBFDC046FC0B00209C890110908A011005
:1015A000B0870110F0B5DE4657464E464546E0B5D9
:1015B0008BB0804616001F00149B9A46159B9946D7
:1015C00016AB1B789B461F2302AA94466344002255
:1015D0001A702BE0002809D042461268127B904214
:1015E00004D8421E4146C9688A5C41E0404B414AEA
:1015F000412141480EF088FD07984CE0361BAF4171
:10160000002F07DB002F11DA3C4B3D4A3F213D48BC
:101610000EF07AFD012676423B4FF3E7374B384A0E
:101620003F2138480EF070FD002F4FDB43465A68CB
:10163000EFF3108472B6136859424B41D9B2079147
:10164000002BF8D1BFF35F8F1F3302AA9446634487
:1016500004930023039302934B4601935346009354
:1016600032003B004046FFF70FFD031EB2D10200DF
:1016700041464968BFF35F8F00250D6084F31088F1
:10168000002B29D01F2302A98C4663441B78002B12
:10169000B2D112021043002B20D05B46002B1DD08C
:1016A0004946D04704000D0003000B431DD000291C
:1016B000A4DB00F001FA06000F1EAFDB36196F4104
:1016C000002FB1DA012676420F4FADE70B4B0C4AE3
:1016D0003F210C480EF018FD012040420BB0F0BC39
:1016E000BB46B246A946A046F0BD0798F6E7C046FD
:1016F00004880110A88A0110B0870110A886011083
:10170000508A0110C4860110FFFFFF7FF8B5040066
:10171000002900D162E04268EFF3108572B61368C9
:1017200058424341D8B2002BF9D1BFF35F8FCBB2FF
:101730002268567BB3421BD10120002848D0206983
:1017400088422BD0090AC9B2002B2ED02068007B1A
:1017500083422AD8581EE668305C88422BD000208D
:101760006368BFF35F8F00221A6085F31088F8BDAD
:10177000002B0DD0167BB3420AD85E00F618033E4C
:101780001768BC466644B678002ED6D00120D4E750
:10179000134B144A682114480EF0B6FC2C21134B4D
:1017A000134AFF3113480EF0AFFC134B134A41218B
:1017B00010480EF0A9FC1900100000F041FC0028B0
:1017C000CED199210E4B0A4A49000A480EF09CFCE2
:1017D00023698B42C4D100232361C1E70020C6E7FF
:1017E00028880110F08A011044880110C089011076
:1017F000388A0110B087011004880110A88A0110EE
:10180000E4890110407D7047F0B587B006000F00F5
:10181000EFF30583002B1FD196246442E517A4192A
:101820007D418D4202D803D1844201D90024002594
:10183000002D14DB0494059500F03EF902000B1E08
:1018400013DBA41A9D41002D17DC14D030003900A1
:1018500000F03EF907B0F0BD20480EF0EFFC204B41
:10186000204A3F2120480EF04FFC1D4B1D4A3F21CE
:101870001D480EF049FC002CE8D0FFF77DFE002348
:1018800002930193194B0093049A059BFFF78AFE7C
:10189000002812DADAE7002300E00023002BD5D17C
:1018A000134B1A68EFF3108172B61368002BFCD04B
:1018B000BFF35F8F0E4813F02DFA0499059A0D4B74
:1018C0005B6A9A42E9D80B48806A884203D29A42FE
:1018D000E1D00123E2E70123E0E7C046E8890110F7
:1018E000A8860110508A0110C4860110010F001053
:1018F00074D900200040054070B504000D0000F0D0
:10190000DBF802000B1E0ADB200029008018594179
:1019100000290ADB00290CDBFFF776FF70BD084BBE
:10192000084A3F2108480EF0EFFB012040420749DA
:10193000F0E7034B034A3F2103480EF0E5FBC046A6
:10194000A8860110508A0110C4860110FFFFFF7F96
:1019500010B5FA2292000023002110F0F9F8FFF7E9
:10196000CBFF10BD70B584B005000C00EFF305830C
:10197000002B1ED1FFF700FE002302930193224BA0
:1019800000932A002300FFF70DFE061E23DD20BF73
:10199000FFF7F2FD3100FFF7B9FE1C4B5B6A9C427A
:1019A0002DD81A4A926AAA422CD29C4225D00120F4
:1019B00026E0164B5B6A994209D8144A926A824221
:1019C00007D2994201D001201AE0002018E000203F
:1019D00016E0012014E00D4B5B6A9C4209D80B4ACB
:1019E000926AAA4207D29C4201D0012008E000205E
:1019F00006E0002004E0012002E0002000E00020DA
:101A000004B070BD0120FBE7010F0010004005404D
:101A100070B5EFF305801038EFF3108C72B61A4BE7
:101A20001B68002BFBD0BFF35F8F012213008340A4
:101A300016494B6316490B60164909780C00C440DF
:101A4000224214D0114A546A8200134D52599442D2
:101A500006D38200114C125999430E4B197007E0BE
:101A60000A4A031D9B0099589950002200E0002269
:101A7000BFF35F8F044B002119608CF31088002A9C
:101A800000D0904770BDC046280100D000400540FE
:101A90003C70054044DB022080D90020DC1200208D
:101AA00010B50100024A0348FEF70AFD10BDC0460A
:101AB000208B011033DB0220044B5B6A034A906ADF
:101AC0001900536A9942F9D17047C0460040054059
:101AD000084B5B6A01E0074B5B6A8B42FBD301E07A
:101AE000044B5B6A8B4203D1024B9B6A8342F7D360
:101AF0007047C0460040054070B504000D00FFF778
:101B0000DBFF02000B0020002900801859418B42A6
:101B100002D804D1824202D901204042C1170029D3
:101B200002DBFFF7D5FF70BD024B034A3F2103489C
:101B30000EF0EAFAA8860110E48B0110C4860110A9
:101B400070B504000D00EFF3108672B61B4B1B68D6
:101B5000002BFBD0BFF35F8F002D1CD02000FEF7C1
:101B600093FE174B83420BD019002000FEF7A6FE10
:101B700001212000FEF778FE0123A340114A1360E3
:101B8000A400114BE550BFF35F8F0C4B00221A608D
:101B900086F3108870BDA2000B4B0021D1500122AA
:101BA000A2400A490B7893430B7005492000FEF7C9
:101BB000C9FF00212000FEF757FEE4E7280100D00E
:101BC000111A001038600540DC12002044DB0220AE
:101BD000F0B5DE4600B584B00400150001921E0089
:101BE0000293FFF769FF03958E4202D84ED18542DA
:101BF0004CD9EFF3108B72B6274B1B68002BFBD030
:101C0000BFF35F8F254A17780125A540EBB23B4310
:101C10001370234B5D63221D92000199D150A200E5
:101C20002049029850501B6A2B4212D11C4B1B6C4E
:101C30002B4208D00020BFF35F8F174B00221A60A1
:101C40008BF3108823E0184B184AC52118480EF072
:101C50005BFAFFF731FF8E4214D802D1039B834217
:101C600010D80E4B1B78BB420ED00D4B1D625D632E
:101C70001F2004400123A3400E4A1360074B1F702E
:101C80001E38D8E70020D6E70120D4E7012004B0B1
:101C900080BCBB46F0BDC046280100D044DB02201A
:101CA0000040054080D90020448B0110C88B0110F2
:101CB000688B011080E200E0EFF3108C72B60B4BE2
:101CC0001B68002BFBD0BFF35F8F01238340084AC2
:101CD000136208490A789A430A70BFF35F8F034B77
:101CE00000221A608CF310887047C046280100D08B
:101CF0000040054044DB022010B500291ED0037BC4
:101D000099421BD84B005B18033B0468A44663440C
:101D1000002919D0002A1DD0914221D0002A25D0B7
:101D2000047BA24222D8046850008018033820188F
:101D30008170197800291FD11A7010BD104B114AFB
:101D4000682111480EF0E0F9104B114A6F310E482E
:101D50000EF0DAF90F4B0E4A70210B480EF0D4F951
:101D60000D4B0B4A712108480EF0CEF9044B054A81
:101D7000682105480EF0C8F941701A70DDE7C046C9
:101D800028880110048D011044880110AC880110CE
:101D9000F08C0110B8880110C488011070B50600DD
:101DA0000D001400002914D0002A14D08068736834
:101DB0009847002806D0220029003000FFF79CFF3A
:101DC000280007E02A0021003000FFF795FF2000DF
:101DD00000E0100070BD0800FCE7000010B5002313
:101DE000437301338373037BC3730123027B9A42E2
:101DF00014D9002B0CD0027B934209D85A00D21878
:101E0000033A01688C4662440133DBB25370EDE75C
:101E10000B4B0C4A68210C480EF076F9002A09D0C9
:101E2000924207D8016853009A18033A8A1800238F
:101E3000537010BD024B034A682103480EF064F949
:101E400028880110048D01104488011010B5017319
:101E500042608360FFF7C2FF10BD000070B5040050
:101E6000081E00D170BD002934D0237B994231D89F
:101E70004B005B18033B2268944663445A78002A5F
:101E8000F0D02DD0237B9A422AD853009B18033BD5
:101E900021688C4663445D7800215970002825D064
:101EA000237B984222D843001B18033B21688C46B1
:101EB00063440021597001002000FFF76FFF060006
:101EC00029002000FFF7CAFF020031002000FFF7C1
:101ED00065FFC7E7084B094A682109480EF014F965
:101EE000054B064A682106480EF00EF9024B034ADC
:101EF000682103480EF008F928880110048D0110AC
:101F00004488011070B505000C00160000292FD080
:101F100034D0037B994231D84B005B18033B0268F5
:101F2000944663445A78002A2ED19A78002A31D1F7
:101F30001978FFF793FF0300002E0AD0EA7B002AEE
:101F40002ED1AA7B002A03D1EA7B002A3BD1AC73B5
:101F5000EC73002B3DD1002C4FD02B7B9C424CD8F6
:101F60002B6861000C19033C1C190023637070BDC1
:101F7000254B264A382126480EF0C6F8254B264A1E
:101F8000682126480EF0C0F8254B204A3A21204807
:101F90000EF0BAF8234B1D4A3B211D480EF0B4F851
:101FA000002A0AD0297B8A4207D851008A18033AAE
:101FB00029688C4662445470C3E7164B164A682160
:101FC00016480EF0A1F8184B104A422110480EF0A6
:101FD0009BF8002B0BD02A7B934208D843001B1898
:101FE000033B2A689446634400229A70B3E7094B86
:101FF000094A682109480EF087F8064B064A68210D
:1020000006480EF081F8C046FC8B0110DC8C0110F4
:10201000048C011028880110048D011044880110DF
:10202000588C0110808C01108889011070B5040053
:102030000A00457B2900FFF765FF6073280070BD2B
:1020400070B50400002967D0437B8B420ED0002975
:1020500011D0037B99420ED84B005B18033B0268FA
:10206000D0188378002B0CD1002056E00121FFF717
:10207000DDFF012051E0294B294A682129480EF053
:1020800043F8002B20D0227B93421DD85A00D3184E
:10209000033B2268D2182568EB5C8B421AD0002BD8
:1020A0001BD0227B934218D85A00D318033B2268D6
:1020B000D21853788B4216D0002BF0D11A4B1B4A02
:1020C0006B211B480EF020F8144B154A6821154867
:1020D0000EF01AF84378137007E0104B104A68218D
:1020E00010480EF011F8437853700023837043704A
:1020F00001222000FFF706FF0200617B814205D02C
:102100002000FFF74BFE6073012006E0094B074AF1
:10211000712107480DF0F8FF002070BD28880110DC
:10212000048D0110448801107C850110C48C0110BD
:10213000048C0110A48C0110024B00221A600020B4
:102140007047C0464428002010B50023002200211B
:1021500013F092FA10BD000010B51B4B1B68002B4A
:1021600023D1194B1860194B1B78002B23D1174B27
:1021700001221A7002320021012013F017FA040024
:1021800003220021012013F011FA114B18602100E5
:10219000104808F013FE01214942200013F03AFDD7
:1021A000200013F077FE012010BD0B4B0B4A1E21BF
:1021B0000B480DF0A9FF064B1868002300220021F0
:1021C00013F05AFAEFE7C0464428002036DB02201D
:1021D000BCD9002049210010108D0110808D011004
:1021E000208D011010B503681B6900220149984732
:1021F00010BDC0463921001010B505E00121074B84
:102200001868494213F006FD054B1B68002BF5D0FA
:10221000034B186803685B68984710BDBCD9002061
:102220004428002010B5034B186803689B68984742
:1022300010BDC04644280020083000E018000368A4
:10224000002B03D08B42F9D1002002E001600B602B
:1022500001207047083000E018000368002B05D00B
:102260008B42F9D10B680360012000E00020704729
:10227000043000E018000368002B03D08B42F9D132
:10228000002002E001600B6001207047043000E094
:1022900018000368002B05D08B42F9D10B6803604E
:1022A000012000E000207047F8B506008068002893
:1022B00033D0FFF701FC002906DB04000D000823E2
:1022C0009C46B44400220CE0154B164A3F211648A8
:1022D0000DF01AFF154B164A422116480DF014FF57
:1022E0009C4663461B68002B12D0200029009E6884
:1022F000DF68801BB9410029F2DB34003D000E4944
:102300000A684968724079400A43E3D06246E7E7C9
:10231000002A03D0106803681360F8BD1000FCE7C2
:10232000A8860110288E0110C4860110948D01101A
:10233000408E0110B88D0110188B0110F0B583B0DC
:10234000104B5C681B6800930194836804E0DC68B0
:102350009B68009301940B00002B0CD01968009C23
:10236000019D9E68DF68A41BBD41002DEFDCF2D10A
:10237000002CECD1EFE7009B019C0361446103B0AA
:10238000F0BDC046188B011070B506000D0002E0CC
:102390004B68280098472800FFF786FF011EF7D1F9
:1023A0006C6800E02468002C09D0237A002BF9D057
:1023B000002323722100280063689847F2E7280071
:1023C000FFF7BCFF2B696C6933607460300070BD2F
:1023D00010B501F099FC08F0CDFD00F0C5FB00F050
:1023E000C9FD00F06DFE05F037FA01F017FD00F0B1
:1023F00018FA05F073F910BD0302000A184380B201
:10240000704703060202FF2109040A401343020A2F
:10241000FF2109020A401343000E184370470000D1
:1024200000280AD0C07A002809D1431C9B00054A25
:102430009B58002B04D0012002E0002000E0002087
:102440007047C046B81F002010B509F02FF980B2C0
:10245000002301E00133DBB2032B0FD81A01D2189D
:10246000120107498A18927A022AF3D11A01D21866
:1024700012018A1812898242ECD1E6E710BDC046EB
:10248000C01F0020F0B5D6464F464646C0B50600F0
:102490008846002401E00134E4B2032C23D825004F
:1024A00063001B199B00314A9F58002FF3D0630033
:1024B0001B199B00D3181B7AB342ECD13001801951
:1024C000000110302A4BC0189246630099461B1930
:1024D0009B0053445A684146B8474D44AD00002321
:1024E0005246AB50D7E7002301E00133DBB2032BA8
:1024F0001BD8B342F9D01A01D21812011C498A180C
:10250000927A022AF1D11A01D21812018A18D07BCC
:102510003201921912018A18D27B9042E5D133011F
:102520009B191B01CB180422DA7333019B191B0181
:102530000F4AD318DB7B032B04D9E0BCBA46B14663
:10254000A846F0BD0B4C9B00185905F083FC084AC7
:10255000300183191B01D318DB7B9B00002119512B
:102560008019000110180423C373E6E7881F0020B8
:10257000C01F0020781F0020F0B5D6464F464646C3
:10258000C0B584B08046030143441B01534AD318AD
:10259000DB7A012B34D89B00514A9B58002B32D058
:1025A00004014444240110344C4BE418200015F07D
:1025B00081FCA022123081B29200362001F02CF86A
:1025C0008146002800D185E001AD0C2200212800C1
:1025D0000FF02AFB43461B0143441B013F4AD3181B
:1025E0001889FFF709FF28800123AB70FF33AB8008
:1025F0000C222900484601F037FA661E0C2737E006
:1026000038480DF01BFE0021FFF73CFF4346180140
:1026100040440701314BDF190023BB720024200026
:1026200004B0E0BCBA46B146A846F0BD0134E4B2FD
:10263000013633782E2B01D0002BF7D1731B9BB2C0
:102640009A463B19284A934216DC22003900484634
:1026500001F0A4FA7B1C9BB252462900484601F0C7
:102660004FFA3C19A5B26F1CBFB23378002B09D0CA
:10267000013635000024DCE7484600F08FFF0624D1
:102680006442CCE700223900484601F087FA02355F
:10269000ABB28022520069460A804A80FC3A484622
:1026A00001F02EFA0D4943461B0142469A181201C9
:1026B0008A18D07BD37A9B00094AD21880000B4934
:1026C00040583523494605F03DFB0400484600F0DC
:1026D00065FFA4E701246442A1E7C046C01F0020B3
:1026E000B81F0020708E0110FEFF0000781F002030
:1026F00070B50400000100190001414BC018032C03
:1027000020D823011B191B013D4AD3189B7A022BA9
:1027100034D01AD8002B14D0012B00D06CE0FFF776
:1027200093FE3749220113191B01CB18188102208F
:1027300098720020D87201251D7358732000FFF78E
:102740001BFF70BD2F480DF079FD032B54D12301E1
:102750001B191B012A4A9B58002B07D0013B220161
:102760001219120126495350002BEAD120010419F5
:102770002401234804190023A372E2E723011B1953
:102780001B011F4AD218137B013BDBB21373002BD2
:10279000D7D123011B191B01194AD218537B0133CE
:1027A000DBB25373042B09D0220112191201144910
:1027B0008A1813732000FFF7DFFEC2E7FFF730FE31
:1027C00000280DD00E49220113191B01CB18D87A0D
:1027D0000130D872012018731A0000235373E9E7FF
:1027E00000212000FFF74EFE200104192401044BB4
:1027F0001C190023A372A4E703480DF01FFDC04677
:10280000C01F0020888E0110A48E011010B5002476
:1028100004E02000FFF76CFF0134E4B2032CF8D988
:1028200010BD7047012800D97047002904D08000EE
:102830000A68044BC250F7E78000034B1A68014B4B
:10284000C250F1E7B81F002010B2011010B5FFF719
:10285000DDFF10BD30B583B06B460022DA80012366
:102860001D000540184206D0002904DD02786B46A1
:10287000DA7101390130032213000340104209D0FC
:10288000012903DD03880239023003E0002301E05F
:102890000839200007290CDD0268D218934200D9BC
:1028A00001320400083443689B189A42F0D901337E
:1028B000EEE71A0C1B041B0CD31803E002889B18CC
:1028C000023902300129F9DC002902DD01786A466B
:1028D00091716A4606321288D318180C1B041B0C1F
:1028E000C318180C1B041B0CC018002D05D00306C0
:1028F0001B0C020AFF201040184380B203B030BD09
:10290000F0B583B00600019115001C00002700E01F
:102910003668002E15D071897068FFF79BFF00198B
:10292000040C0004000C24187389DB07F0D57B42EB
:102930005F41FFB22206120C230AFF241C401443FD
:10294000E6E7002F05D02206120C230AFF241C40C4
:1029500014436B469888FFF74FFD24182800FFF7B3
:102960004BFD2018030C0004000C1818030C000485
:10297000000C1818C04380B203B0F0BD70B51C68DD
:1029800025042D0C230C5B19049C246825042D0CB4
:10299000ED18230C5B191C0C1B041B0CE3181C0CFE
:1029A0001B041B0CE318FFF7ABFF70BD10B582B022
:1029B000049C0094FFF7E2FF02B010BD10B5FFF7D2
:1029C00049FFC04380B210BD70B505000026002449
:1029D00000E02D68002D15D069896868FFF73AFF7F
:1029E0000019040C0004000C24186B89DB07F0D5D7
:1029F00073425E41F6B223061B0C240AFF200440FA
:102A00001C43E6E7002E05D023061B0C240AFF20FA
:102A100004401C43E04380B270BD0000014B1B68C2
:102A20001818704794C70020024B1B68C01A80B268
:102A30007047C04694C70020F8B50400FFF7F4FFC4
:102A4000050027883800FFF7E9FF060064882000AA
:102A5000FFF7E4FFFA231B019F420FD89C420FD8D7
:102A6000AC4202D00388AB420CD1094B1B68B34285
:102A70000AD07388AB4209D1012000E00020F8BDE4
:102A80000020FCE70020FAE70120F8E70020F6E745
:102A900098C7002070B504002C4B1B68834242D8B5
:102AA0002B4B1D68854241D90379002B41D1008809
:102AB000FA231B0198423FD8FFF7B0FF844216D09B
:102AC0000379002B13D1854211D0224B1B6883421E
:102AD00035D0038823800088FA231B01984206D052
:102AE000FFF79CFF05002000FFF79EFF68806088CD
:102AF000FFF794FF0500844214D00379002B11D115
:102B0000144B1B68A3421DD023882B802088FA23F6
:102B10001B01984206D0FFF781FF04002800FFF751
:102B200083FF608070BD0C480DF088FB0B480DF0F2
:102B300085FB0B480DF082FB0A480DF07FFB054B2F
:102B40001C60C6E7034B1860DEE7C04694C7002050
:102B500098C7002038280020C48E0110DC8E011098
:102B6000F88E0110148F011070B5104C033403233C
:102B70009C430F4B1C60FA252D01258000236380A8
:102B800023712800FFF74AFF0A4B186001230371E5
:102B900005804580084B1C60084808F0F9F90028BA
:102BA00000D170BD06480DF049FBC0469CC700200F
:102BB00094C7002098C7002038280020D82800207B
:102BC000408F011070B5041E29D0830728D105005D
:102BD000083D194B1B68AB4225D803000C33174A3C
:102BE000126893421FD8164808F0E6F92300083B04
:102BF0001B79002B1AD02800FFF71EFF002818D0E1
:102C0000083C002323710F4B1B68AB4201D90D4BCD
:102C10001D602800FFF73EFF094808F0E9F970BD84
:102C200009480DF00BFB09480DF008FB08480DF0B2
:102C300005FB08480DF002FB94C7002098C7002050
:102C4000D8280020382800205C8F0110808F0110C8
:102C50009C8F0110C48F0110F0B5C64600B5060068
:102C6000CC1CA4B203239C430B2C05D9FA231B01D3
:102C70009C4202D9002648E00C248C4200D280E01D
:102C8000414B1B68B34244D8404B1B68B34240D908
:102C90003500083D2800FFF7C7FE07002D882D1AD4
:102CA000ADB2083DADB2AC4236D82ED0384808F0AF
:102CB00083F93300083B1B8898461800FFF7AEFEE7
:102CC0000379002B34D1FA231B01984527D00588BE
:102CD000E419A4B20834A4B22E4B1B68834221D05D
:102CE0002000FFF79BFE002303710580478033001F
:102CF000083B1C800088FA231B01984202D0FFF792
:102D00008DFE4480224808F073F9300080BCB8463C
:102D1000F0BD21480DF092FA20480DF08FFA2048BE
:102D20000DF08CFA2000FFF779FE1A4B1860D7E7F8
:102D300023001433AB42E5D8E419A4B20834A4B29A
:102D4000FA231B01984519D02000FFF767FE114BAD
:102D50001B68834201D90F4B1860002303713300B5
:102D6000083B1A88028047801C800088FA231B01D8
:102D70009842C7D0FFF752FE4480C3E708480DF0E1
:102D80005DFA0026C1E7C04694C7002098C700201E
:102D9000D828002038280020F88F0110109001104A
:102DA00030900110F0B5CE4600B582B0002800D1B9
:102DB0008BE0C51CADB2032295430B2D05D9FA2338
:102DC0001B019D4202D900207BE00C25854200D2E8
:102DD0007DE0404808F0F0F83F4B1B68994618002A
:102DE000FFF722FE070035E03C480DF027FA0123EB
:102DF0000371A14513D0374808F0FAF8019BE51894
:102E00000835374B1B689D421DD8A3071ED12000F3
:102E1000083056E04B461888FFF700FE81464B46C7
:102E20001B79002B03D02E4A12684A45F2D12A4A58
:102E3000494611602A4A12684A45DCD0002BDAD094
:102E400028480DF0FBF928480DF0F8F927480DF057
:102E5000F5F927883E000195FA231B015B1B9F4271
:102E60002BD23800FFF7DAFD04000379002BF0D1F4
:102E700003889E1B083E019B9E42EAD314339E4268
:102E8000B5D37E19B6B20836B6B2FA231B019E42FC
:102E9000AAD03000FFF7C2FD00230371238803800E
:102EA00047802680012323710088FA231B01984262
:102EB0009FD0FFF7B3FD46809BE7064808F098F8DF
:102EC000002002B080BCB946F0BD0020F9E7002028
:102ED000F7E7C046D828002038280020309001109D
:102EE00098C700204490011060900110909001104C
:102EF00010B5040008F043F8E3681C68002C0AD001
:102F000022681A60A30703D108F03EF8200010BD24
:102F100002480DF093F908F037F8F7E7C090011078
:102F200070B505000C008B0709D108F028F8EB6894
:102F30001B682360EB681C6008F026F870BD014830
:102F40000DF07CF9E4900110C36800221A608368D8
:102F5000033303329343002207E0C1680968196014
:102F6000C1680B6081885B180132C1889142F4DC32
:102F70007047000010B5002406E0A200044BD058B2
:102F8000FFF7E2FF0134A4B20C2CF6D910BDC04605
:102F90009C92011010B50C2805D88000044BC05835
:102FA000FFF7A6FF10BD03480EF09CFF0020F9E7D5
:102FB0009C9201100491011010B50C2807D800292B
:102FC00004D08000044BC058FFF7AAFF10BD03488F
:102FD0000EF088FFFAE7C0469C9201102491011080
:102FE0000B688268934206D0002902D083600120DA
:102FF00070470023FAE70020FAE70B68C2689342A3
:1030000006D0002902D0C360012070470023FAE7F0
:103010000020FAE70C204042704770B504000D0014
:1030200001F044F92900200004F044FF29002000A9
:1030300000F04EFE70BD000010B500280DD0392301
:10304000C25C343B1340052B06D1CB0704D5436843
:10305000002B01D0130703D410BD03480DF0EEF888
:10306000011D06F00FFBF7E7D092011030B583B0D9
:1030700005000C001000002908D0002A09D06B6858
:103080000A689A4208D1002003B030BD0B480DF009
:10309000D5F80A480DF0D2F80192036001A9FFF7B4
:1030A000BCFF23686B6001212800FFF7C5FFEB69B7
:1030B000002B01D0280098470120E5E7F492011089
:1030C00070470000F0B5C64600B582B005000C00A0
:1030D00017001E00002920D0002F20D0002E20D065
:1030E000002C02D02368002B1DD101AA210028004A
:1030F000FFF7BCFF01239846002239002800FFF7A4
:103100006FFF002231002800FFF777FF4346002BB6
:103110000CD002B080BCB846F0BD074CDCE7064FCF
:10312000DCE7054EDCE700239846E5E701AA21002D
:103130002800FFF79BFFECE710B20110F0B5C64680
:1031400000B504000E0017009846002832D0079BF7
:10315000002B34D0002937D0002F37D04346002B26
:1031600036D000256560A560E560354B6361258636
:1031700000223923E25420002830042200210EF0DE
:1031800053FDE5612562069B63622E4B1A783C2352
:10319000E254089B236143463A0031002000FFF7C8
:1031A00091FF2000079B9847002823D0002080BC77
:1031B000B846F0BD24480EF095FE2000F7E72348FE
:1031C0000EF090FE0020F2E7214EC5E7204FC5E744
:1031D0001F4B9846C5E7C33B0022E2540EE01D4852
:1031E0000DF02CF81C480DF029F801313C22A154B7
:1031F000002B15D03C23E35CFF2BECD0174B1D6854
:103200002B000022002BF3D09C42E8D00132FF2A91
:10321000E8DC3C21585C615C8842E6D01B68F1E741
:103220003C33E35CFE2B07D00133064A1370256064
:103230000A4B1C602000BAE7024B00221A70F6E726
:10324000153000103CDB0220049301102093011084
:1032500010B201104493011058930110D0C4002003
:10326000014B18607047C046CCC4002010B5041E46
:1032700010D03923C35CDA070BD40122134339225F
:103280008354C369002B00D0984703212000FFF727
:10329000D3FE10BD01480EF025FEFAE78893011019
:1032A00010B5041E0FD03923C35CDA070AD50122FA
:1032B0009343383283541B0709D4E369002B01D0B0
:1032C0002000984710BD03480EF00CFEFAE706F008
:1032D0002BF9F2E7A493011010B5041E28D043681F
:1032E000002B12D13923E35CDB0713D4114B1B688D
:1032F000A34213D0104B1B68A34213D0002B17D04E
:103300001A68A24212D01300F8E704300021FFF738
:1033100084FEE7E72000FFF7C3FFE7E70020FFF7A1
:103320009FFFE7E72268044B1A6001E022681A60F9
:1033300010BDC046CCC40020D0C4002010B5041E6F
:1033400004D03923C35C5A0704D510BD09480EF0D8
:10335000C9FDFAE7042213433922835405F0EEFC39
:1033600003212000FFF768FE236A002BEDD0200028
:103370009847EAE7C493011010B500280CD0392310
:10338000C35C5A0707D50422934335328354036A3A
:10339000002B00D0984710BD01480EF0A3FDFAE7BE
:1033A000E8930110021E0BD0064B1868002808D0C5
:1033B0003C23C35C0133DBB2934202D00068F5E7E3
:1033C00000207047D0C4002030B504AC257800241C
:1033D000046041600281438103AB1B780373457332
:1033E00001238373C47330BD02E0C91A89B2006837
:1033F000002802D043898B42F7D9002A00D01180DF
:103400007047000070B500281AD080235B029942F3
:1034100021D2002921D08CB203891B199BB2A3426F
:103420001DD30C254557002D0DDB002A19D042680D
:10343000511A4160428914194481038100200BE034
:1034400009480CF0FBFE4268511A020010328A4211
:10345000EFD9012000E0012070BD0020FCE7012031
:10346000FAE70120F8E7C04668AB011010B507F095
:1034700086FD0C4B1C78E4B201221A7007F084FD23
:10348000002C00D010BD0021074807F06FFC002879
:10349000F8D007F074FD034B00221A7007F074FD9A
:1034A000F0E7C0463EDB0220DD34001010B507F027
:1034B00066FD084B00221A7007F066FD064B18687F
:1034C00000E0C068002804D0436F002BF9D000F062
:1034D00079FD10BD3EDB022090D9002010B5FFF72A
:1034E000E5FF10BDF0B583B007000E001500412ABE
:1034F00001D0012A0FD10B20FFF74CFD041E07D08D
:10350000002301930095330032003900FFF75CFF80
:10351000200003B0F0BD01480CF090FE0C940110A7
:1035200010B50022FFF76EFF10BD000010B5002897
:1035300014D080235B02994218D2002918D08AB295
:10354000438993420DD34468A446614441609B1A69
:10355000438103899A1A0281002010BD05480CF0AE
:103560006DFE05480EF0BEFC0120F6E70120F4E7F1
:103570000020F2E768AB01102094011010B500297B
:1035800002DBFFF73FFF10BD4942FFF7CFFFFAE72D
:1035900010B50122FFF7F2FF10BD000070B5051E47
:1035A00001D000260CE019480CF048FE18480CF039
:1035B00045FE29000C20FFF7FFFC0136F6B225007E
:1035C000002D21D007F0DBFCAC7B002CEED0013CC1
:1035D000E4B2AC7307F0D8FC002C15D12C682A7B20
:1035E0000F231340022BE4D0012B05D0002B08D170
:1035F0002800FFF7E7FAE0E729000B20FFF7DCFCE3
:10360000DBE704480CF01AFE300070BD68AB011017
:103610004094011058940110F0B5D6464F464646E6
:10362000C0B582B005000F00904684B2C1235B0094
:103630009A4241D011D8012A02D0412A00D07DE01F
:10364000424639000020FFF74DFF8146484602B050
:10365000E0BCBA46B146A846F0BDA0239B009A4202
:103660006CD1E31C03218B439BB2FA1C94B28C43B4
:103670001B199BB21800103080B28A43934260D36A
:10368000824261D8FFF78EFB81460028DED02900F8
:103690001031494403310324A143002301934346DD
:1036A00000933B003A00FFF78FFE4B465B682342D6
:1036B000CCD027480CF0C2FD00250023994626E017
:1036C000FFF7D4FE4B46002B02D04846FFF766FFBB
:1036D000A946BBE7B6B221001031691803310324B3
:1036E000A143002301934346009333003A0028008E
:1036F000FFF76AFE6B6823421BD14B46002B1BD0A1
:1037000053461D60BF1BBFB20024002F9ED0AA46A7
:103710000C20FFF73FFC051ED2D0E31C032293438D
:103720009AB20C4B9B1A9BB21E1CBB42D2D93E1CB8
:10373000D0E709480CF082FDA946E3E707480CF002
:103740007DFD0023994681E7002399467EE7C04628
:10375000D0940110EC0500006C940110FC94011051
:1037600070B5041E12D00089884220D90D006389EB
:10377000AB420ED2ED1AADB223890A1A9B182381EF
:103780002468002CF3D113480CF058FD12480CF0BB
:1037900055FD227B120701D1AB4209D165812581FC
:1037A0002068002801D0FFF7F9FE0023236070BDD8
:1037B0006368191B691889B22000FFF74DFA0028C9
:1037C00004D08442EAD005480CF038FD04480CF0DF
:1037D00035FDC04630950110189501106495011013
:1037E000489501100300002002E0013080B21B6800
:1037F000002BFAD17047000010B5041E09D007F065
:10380000BEFBA37B0133A37307F0BEFBA37B002B9E
:1038100000D010BD01480CF011FDC046809501108C
:1038200010B5002801D0002908D10C480EF05AFB31
:103830000FE003890C891B19038110000268002A1C
:10384000F7D103894289934204D10A899B180381E5
:10385000016010BD02480CF0F1FCC04694950110C7
:10386000CC95011010B50C00FFF7DAFF2000FFF730
:10387000C3FF10BDF8B5CE46474680B506000D1E05
:10388000914698460AD00A894A4507D300280BD0AA
:1038900002894B449A4207DB002726E03D480EF0A0
:1038A00021FB1020404270E03B480EF01BFB102033
:1038B00040426AE039480CF0C1FC39480CF0BEFCCB
:1038C0004B46002B36D10027424539D0002D03D07E
:1038D0006A892B899A4245D0002E03D07289338998
:1038E0009A4248D04B46002B4ED0738942469B1AD1
:1038F0006A89D21B934200D313004C46994500D9E4
:103900001C00706840446B68D91922000EF092F9CF
:10391000A0443F194B461C1BA3B2994672894245ED
:10392000C8D36B89BB42C8D3CED82D68002DC7D071
:103930000027C9E71B480EF0D5FA1020404224E0CA
:103940003668002E02D000239846BFE74B46002B76
:1039500002D100239846B9E713480EF0C3FA1020AD
:10396000404212E02B68002BB6D010480EF0BAFA95
:103970000620404209E03368002BB3D00B480EF01C
:10398000B1FA0620404200E00020C0BCB946B04673
:10399000F8BDC046FC9501103096011060960110EC
:1039A0007896011094960110A4960110B496011017
:1039B00010B5002904D00A890023FFF75BFF10BD72
:1039C00002480EF08FFA10204042F8E7EC96011002
:1039D000F8B5CE46474680B50500884691461900A1
:1039E000002805D04346002B0BD00027002625E0F9
:1039F00019480EF077FA00273800C0BCB946B04627
:103A0000F8BD16480EF06EFA0027F5E76C89641AC7
:103A1000A4B2A14500D24C46434698196B689C4617
:103A2000614422000EF006F9E719BFB23619B6B2AA
:103A30004B461C1BA3B2994600212D684B46002B18
:103A4000DAD0002DD8D00029E0D06B898B42DDD8A8
:103A5000C91A89B2F1E7C0460897011028970110EA
:103A600010B5FFF7C1FC10BDF8B5CE46474680B58E
:103A70000500884616009146002806D000290AD085
:103A8000038993420DD300271DE018480EF02AFA4F
:103A90001020404223E016480EF024FA1020404245
:103AA0001DE014480EF01EFA0120404217E01248B3
:103AB0000CF0C4FB4346D919220068680EF0BAF82E
:103AC000361B3F192D68002E06D0002DEFD06C89D3
:103AD000B442EFD33400EDE74F4504D10020C0BC21
:103AE000B946B046F8BD05480CF0A8FB4C9701104C
:103AF0006497011080970110A0970110B8970110EA
:103B0000F0B583B00F00140019006B469A1DFFF743
:103B1000A7FF061E24D002896B46D88803199A4253
:103B200021DB7389984212D21A1A944212DD95B29F
:103B300073689C4660442A0039000EF07BF8621BD3
:103B400092B27919002A07D1002003B0F0BD0748CE
:103B50000CF074FB2500EBE73068FFF785FFF4E716
:103B600001204042F1E701204042EEE7D0970110EA
:103B700070B50B00150011891A00FFF74DFD041EEA
:103B800004D02900FFF714FF002801D1200070BDE8
:103B900001480CF053FBC046E897011010B582B005
:103BA00014006B469A1DFFF75BFF002807D042897F
:103BB0006B4606331B889A4201D94268D45402B03E
:103BC00010BD000010B5027A002A07D0134B5C68C4
:103BD0003C23E35C0133DBB29A4213D1002906D0C7
:103BE000002811D00368002B10D000200BE0002823
:103BF0000ED00368002B0DD0084A526993420BD0B7
:103C0000080000E0002010BD0120FCE70120FAE7D9
:103C10000120F8E70120F6E70120F4E72028002042
:103C2000F0B5D6464F4680B583B00500244B1968E1
:103C3000586906F0FCFF07006B685E7A214B1C6830
:103C400000239946019313E063699A46002B0DD037
:103C50006B6899461C4B2A002100A069D0470028B8
:103C60001AD16B684B4528D1022399460194E46828
:103C7000002C1CD0237C9E42F8D139002000FFF795
:103C8000A1FF0028F2D0637CDB07DDD50C4B1B695C
:103C900062689A42EAD1D7E7019B002B05D0E2681F
:103CA000DA60084B1A68E2601C60012399464846B6
:103CB00003B0C0BCBA46B146F0BD04480CF0BEFA31
:103CC0002028002058D7002030280020FC97011021
:103CD00010B5002814D00368002B11D000290FD094
:103CE0000B68002B0CD0074B1B6800E0DB68002B37
:103CF00006D01A680468A242F8D10A681A60F5E78B
:103D000010BDC04658D700207047000010B50029EC
:103D100003D106480CF092FAC068002805D0C36FA2
:103D20008B42F9D10023C367F6E710BD4898011014
:103D300070B5051E04D0037D012B04D101240DE0D4
:103D400008480CF07BFA08480CF078FAA200074B00
:103D5000D35818682900FFF7D9FF0134032CF5D98F
:103D600070BDC046709801107C9801104C9D0110E8
:103D700010B50100037D012B03D00320FFF71CF9D0
:103D800010BD01480CF05AFA9498011070B5041E49
:103D900009D0037D042B19D0072B1ED0032B05D08F
:103DA0000025280070BD12480CF048FA03F014F802
:103DB000051E01D105232375002D15D06B1CF0D1F4
:103DC000638B0822134363830025EAE703F004F8BA
:103DD000051EF1D105232375EEE702F0FDFF051E58
:103DE000EAD109232375E7E7200003F06DF9D8E74E
:103DF0007098011010B5084B186800E020000028EA
:103E000009D0C468438B1A07F8D50822934343832B
:103E1000FFF7BCFFF2E710BD90D9002010B507F006
:103E200045FC8004800C034B9C466044024B188088
:103E300010BDC04600C0FFFF280C002010B50100D7
:103E4000037D012B03D00220FFF7B6F810BD014817
:103E50000CF0F4F9B0980110F8B5002816D0456AB6
:103E6000068DA919C26A448E231C0E4FBC4200D98C
:103E70003B1C9BB2D318CB1A0BD5521B0CD48023FE
:103E80005B029A420BD242850020F8BD06480CF036
:103E9000D5F94685881AF8E700234385F4E70348F7
:103EA0000CF0CCF9D0160000C4980110E89801106D
:103EB00010B5041E13D0037D012B14D0038D5918A7
:103EC00089B20F4A914201D88B420FD90C4B2385FE
:103ED0002000FFF7C1FF0B4B984209D810BD0A48DC
:103EE0000EF000F8FAE709480CF0A8F90185EFE7B1
:103EF000638B022213436383200003F0E5F8EDE7B0
:103F0000A02D0000670B0000049901101C990110FE
:103F100010B5041E08D04068002801D0FFF73EFB12
:103F200021000420FFF748F810BD10B503E0046835
:103F3000FFF7EEFF20000028F9D110BD70B5051E77
:103F40000DD00420FFF726F8041E06D01422290005
:103F50000DF070FE6068FFF74FFC200070BD014857
:103F60000CF06CF94499011010B5002807D0054BEE
:103F7000054A10681A6894466044186010BD0348EA
:103F80000CF05CF9240C0020A0D9002060990110ED
:103F900010B5002A0ED000290BD00B8E002B08D0B4
:103FA000282B0AD9283B9BB21A1C834200D9021C39
:103FB00090B210BD02480CF041F90023F4E7C0466E
:103FC0007C99011010B50400406F002803D0FFF762
:103FD000ACFF0023636710BD10B5041E22D0037D23
:103FE000002B1ED00A2B1CD0012B1AD0806F00286A
:103FF00003D0FFF7D3FA0023A367636F002B02D02F
:104000002000FFF7DFFF01235B422386E06EFFF70E
:104010008CFF206FFFF789FF0023E3662367682288
:10402000A35210BD01480DF05DFFFAE7A4990110FD
:1040300010B50C1E0BD000280CD003688B420CD09E
:10404000002B0FD0DA68A2420AD01300F8E71C4810
:104050000CF0F4F81B480CF0F1F8DB68036001E0A9
:10406000E268DA600023E3602000FFF7B5FF237DFC
:104070000A2B04D0012B02D0638BDA070FD4237DE7
:10408000012B08D0E36E002B10D1236F002B10D131
:10409000636F002B10D100232375E38210BD022231
:1040A00013436383200003F00FF8E8E706480CF0A1
:1040B000C5F806480CF0C2F805480CF0BFF8C04639
:1040C000C0990110DC990110FC990110149A01109B
:1040D000309A0110F0B5D6464F464646C0B584B07A
:1040E00004000D0000281CD0037D012B1DD00A2BDD
:1040F0001ED0026D9046426A91469022865807690A
:10410000002B47D1C38A9A46002B4DD02E4B1B68FB
:10411000834215D0002B19D0DA68A24214D01300C4
:10412000F8E72A480DF0DEFE2EE029480CF086F86C
:1041300001002848FFF77CFF2000FFF77FFE23E007
:10414000DA68214B1A6001E0E268DA600023E3607C
:104150009A460025206F002801D0FFF7E6FEE06EAA
:10416000002801D0FFF7E1FE606F002801D0FFF7C3
:10417000DCFE002D1AD12000FFF760FE002E03D0D8
:104180000D2149423800B04704B0E0BCBA46B14600
:10419000A846F0BDC38A9A4601000F48FFF748FFC2
:1041A0000E4B01221A70D5E70025D3E7231D228B81
:1041B000029252460192009323004A464146200053
:1041C00002F01AFFD7E7C04694D90020489A0110A0
:1041D000649A0110A4D9002090D9002041DB02206C
:1041E00010B50121FFF776FF10BD000010B50B4B95
:1041F0001B680021002000E0DB68002B08D0084A83
:1042000012681C6A121B8A42F6D311001800F3E7E9
:10421000002801D0FFF7E4FF10BDC046A4D900205C
:10422000A0D9002070B543B2002B02DB002801D1D9
:104230001FE07F200138C2B20E4B1B680024002013
:1042400006E00D4A14681A6AA41A0A001800DB680E
:10425000002B0AD0597D9142F3D3F8D1064D2D6839
:104260001E6AAD1BA542F2D3EBE7002801D0FFF791
:10427000B7FF70BD90D90020A0D9002070B5040010
:104280000800002C06D108480BF0D8FFC568FFF7DE
:10429000A7FF2800002805D0036822689342F5D0C4
:1042A000C068F7E770BDC046989A011070B5040069
:1042B0000D00002802D00368002B00D170BD0D4B0B
:1042C0001968FFF7DBFF0C4B19682000FFF7D6FFDA
:1042D000002DF3D02B68002BF0D0084B1B6800E0BA
:1042E000DB68002BEAD01A6821688A42F8D12A6874
:1042F0001A60F5E790D9002094D900209CD90020BD
:1043000070B501000300083BDBB2012B04D80E4B53
:104310001B680024002003E00C480BF08FFFDB68D3
:10432000002B0BD01A7D8A42F9D1094A12681D6A06
:10433000521BA242F3D314001800F0E7002802D069
:104340000021FFF7C7FE70BD90D90020CC9A011064
:10435000A0D9002070B505000220FEF71BFE041E48
:1043600030D0002C2CD0A422002120000DF05CFCC9
:104370006575254B6422A352638523859B32E272C7
:104380001A32FF326286062240216252E287073AE1
:10439000228649323F39A1521C4A126822621C4AC5
:1043A0001278A2774A22A35284231A4AE250103389
:1043B000194AE2500433194AE25004330922E25008
:1043C000200070BDFFF716FDFFF710FF0220FEF77B
:1043D000E1FD041EC5D10920FFF792FF0220FEF780
:1043E000D9FD041EBDD10820FFF78AFF0220FEF789
:1043F000D1FD041EB5D12800FFF714FF0220FEF7FF
:10440000C9FD0400ADE7C046A02D0000A0D90020E2
:1044100043DB02208945001000DD6D00F824010017
:1044200010B584B0041E13D0002904D0037D042BE2
:1044300011D0072B0FD0237D012B00D166E0022B7A
:1044400000D16FE0002B46D02000FFF79FFC3DE03D
:104450003A480BF0F3FEA36F002B1CD0638BDB06F6
:104460001ED5231D228B0292E28A01920093230023
:10447000626A216D200002F0BFFD2000FFF7ACFD55
:104480002F4B1B68A3420ED0002B12D0DA68A24239
:104490000DD01300F8E7228D2A4B9A42DED1CAE7ED
:1044A00029480BF0CBFEDA68254B1A6001E0E26880
:1044B000DA600023E360254B01221A70244B1B684D
:1044C000A34205D02000FFF7B9FC002004B010BDC6
:1044D00002F06EF8F9E7E38A002B12D01D4B1B683F
:1044E000A34206D0002B0AD0DA68A24205D01300FE
:1044F000F8E7DA68174B1A6001E0E268DA60002337
:10450000E3602000FFF79AFC0020DFE72000FFF7C0
:104510000FFC21001048FFF78BFD2000FFF728FC5F
:104520000020D3E721000648FFF782FD074B012258
:104530001A702000FFF782FC0020C7E7DC9A011008
:1045400090D90020A02D0000FC9A011041DB022030
:1045500098D9002094D900209CD9002010B50028BB
:104560000AD0037D012B03D0438B102213434383D6
:104570000121FFF755FF10BD02480DF0B3FC1020DC
:104580004042F8E7189B011010B5080014000029FC
:1045900009D0002A0DD01189FFF78AFC2000FEF710
:1045A000FDFF002010BD06480DF09CFC102040428D
:1045B000F8E7002B01D00020F4E7FFF7CFFFF1E789
:1045C000309B0110F8B5041E25D0866F777B002341
:1045D00083678433C558002D23D0002332000100A7
:1045E0000069A8470500002D23D1BB0627D5238DE0
:1045F000144A934201D0013323858423E658002EC8
:104600001DD02069002300222100B04703000D3394
:1046100015D1050013E00C480DF064FC10256D4227
:104620000DE00023320001000020FFF7ADFF050080
:10463000D9E72B000D3302D0A66705256D4228006F
:10464000F8BDC046A02D00004C9B011070B51C4A5F
:104650001378013313701B4B1C6813E002221343C1
:104660006383200002F030FD638B03229343638356
:1046700013E00822934363832000FFF787FB0FE0DA
:10468000E5682C00002C19D0A27F0D4B1B789A42B4
:10469000F6D0A377638BDA07E0D4638B1A07E8D4EC
:1046A000E568A36F002BECD0074E00233370200089
:1046B000FFF788FF3378002BE3D0CCE770BDC0460E
:1046C00043DB022090D9002041DB0220F0B5CE462A
:1046D000474680B585B0BA4A136801331360B94ABA
:1046E000137801331370B84B1C68002686E1B74875
:1046F0000BF0A4FDB6480BF0A1FDB6480BF09EFDF3
:104700002600E4687AE14033E35C052B00D88BE1B6
:1047100001256FE0B0480BF091FDB0480BF08EFD25
:10472000200002F0CFF900280CD0A0230022E25490
:104730000133E35C062B00D9A3E00133A132A3547B
:10474000002557E0200002F0BFFC0028EDD1002535
:1047500050E0238EA24A934201D8013323863023AE
:10476000E25E4023E35E9A4244DB200002F068FBF5
:10477000002805D0236F002B3CD1E36E002B39D0ED
:10478000237D022B15D04223E25C131C0C2A00D996
:104790000C23DAB23C21635EDB103E20215E5B1805
:1047A00090498A5C93408E4A934220DC1BB240229F
:1047B000A352002323866033E25A183BE15A131CAC
:1047C0008A4200D90B1C9BB25B084A22A352618E1D
:1047D0004A0092B2934201D24A23E2524823E15264
:1047E00022330022E252200002F00AFE02E07E4B59
:1047F000DDE70125217D062945D0637A08221700CF
:104800001F401A4204D0042949D0072947D0002765
:10481000636F002B0AD06A4B1A68236AD21A4023AE
:10482000E15E4B005B185B009A426AD2237D032B4A
:104830006BD0092B72D0002D79D1E568237F01332D
:10484000DBB22377627F934200D2D5E00023237747
:10485000664A13708C33E358002B00D1A7E0210087
:1048600020699847614B1B78002B00D03BE700285C
:1048700000D19EE026002C00C0E00125BAE700250B
:10488000B8E70025B6E7638BDB06B6D54C4B1B6853
:10489000226A9B1A282BB0D90135EDB2ADE7484BFF
:1048A0001F68236AFF1A9423E35898469C23E05814
:1048B000043BE358994658434044FA2149000CF020
:1048C000B1FD874203D90135EDB20127A0E7A3234B
:1048D000E05C4B4658434044FA2149000CF0A2FDED
:1048E000874201D8002793E7200002F0ADFD0028A1
:1048F00005D1A322A35C0133A354002788E7002736
:1049000086E72000FFF75EFB90E72D4A1268216AD8
:10491000521A282A8DD90135EDB28AE7284B1B6837
:10492000226A9B1AF02B86D90135EDB283E79023DA
:10493000E5582000FFF750FB002E20D0224B1B68CB
:104940009C4219D0E368F360002F23D12369984675
:10495000E7682000FFF772FA244B00221A70002D3E
:1049600003D00D2149424046A847204B1B78002B1D
:1049700000D0B8E63C0041E01D480BF05FFC124B54
:104980001B689C4203D1104BE2681A60DCE71948AF
:104990000BF054FC231D626A216D208B0290E08A8B
:1049A000019000932300200002F026FBCEE70020B8
:1049B00058E7200002F088FB26002C001EE0C046CD
:1049C000A0D9002043DB022090D90020749B011065
:1049D000A09B0110CC9B0110F89B01102C9C011096
:1049E000FE7F00003C9D0110FF7F000041DB0220A4
:1049F000649C0110909C011026002C00002C46D0D5
:104A0000237D002B00D172E6012B00D172E60A2B28
:104A100000D172E6A17F394A1278914200D16FE647
:104A2000A277022B00D16EE64223E35C0B2B00D968
:104A3000DFE6A123E55C002D00D18AE6236F002B81
:104A400000D067E6E36E002B00D166E6A223E35CAC
:104A50000B2B00D911E7013D294B5A5DA023E35CE4
:104A6000934202D20133A0216354A023E35C93421A
:104A700000D204E76023E15A002900D050E620006C
:104A800002F006FD002800D14FE60025B2E61D4BDE
:104A90001D6812E01C480BF0D1FB2800FFF79CFAC0
:104AA000002C1BD0174B1B689D4214D0EB68E360B1
:104AB000EE682800FFF7C2F93500002D19D02B7DD4
:104AC0000A2BE7D1114B1B682A6A9B1AF02BE4D8FA
:104AD0002C00ED68F1E70E480BF0B0FB094B1B68AA
:104AE0009D4203D1074BEA681A60E1E709480BF0E1
:104AF000A5FB05B0C0BCB946B046F0BD43DB022003
:104B00005C9D0110A4D90020BC9C0110A0D90020FC
:104B1000EC9C0110149D011010B5FFF797FD054A9C
:104B200013780133DBB21370DB0700D410BDFFF73D
:104B3000CDFDFBE742DB02200B4A1388591C118094
:104B40000A4A1168002903D0094A1288934204D204
:104B5000084A1268D318187D7047DBB2D2B29B1A8C
:104B6000DBB2C85CF8E7C04626DB0220ACD90020E7
:104B700028DB0220A8D9002070B5041E1FD0204BCE
:104B80001B88002B3AD01F4B00221A801D4B1A881D
:104B90001B4B1B889A4231D2FFF7CEFF0128F5D07C
:104BA00002280FD0002829D0FFF7C6FF03000128F4
:104BB00024D9144A1088C01802381080E6E7124839
:104BC0000BF03CFBFFF7B8FF042817D10D4B1B88F7
:104BD00001330B4A1288934210DAFFF7ADFF85B21A
:104BE0002D02ADB2FFF7A8FF80B205436B1E9BB24A
:104BF000064A934200D9064D6586C7E770BDC04698
:104C00002ADB022026DB0220649D0110B305000090
:104C1000B405000010B5041E05D00E4B1B78DB0652
:104C200004D4002010BD0C480BF008FB438BDB06BE
:104C300007D49023C358002B03D00F2149420069A9
:104C4000984721000548FFF7F3F92000FFF7F6F831
:104C50000120E7E73FDB0220809D011090D9002072
:104C600070B584B01E4B1B785A072FD4002821D072
:104C70009A0722D51B4B1A68436AD11A22D4018D98
:104C80005B189B1A1ED4184B1D68184B18490988CD
:104C90008A18184909682E786C78240234430294E3
:104CA000AE78EC782402344301941C1F009402F087
:104CB000A3F90BE010480BF0C1FADB0702D50F4B4C
:104CC0001B6803620A4B1B88002B01D104B070BD26
:104CD000438B02221343438302F0F6F9F6E7C04602
:104CE00038DB02206CD80020A8D90020342800200E
:104CF0002CDB0220D8120020A89D0110A0D9002092
:104D0000F0B585B004004A4B1B785A0705D400283B
:104D100005D0DA0606D49B0720D405B0F0BD45487F
:104D20000BF08CFA444B1E68444B454A1188454AA7
:104D300012688A18444909681D00143D686837786C
:104D4000747824023C430294B778F47824023C43FC
:104D500001941035009502F068F9DEE7407DFFF719
:104D6000F9FA051E50D0394B5A6902601B6943603D
:104D7000E38AC382304E3268117853781B020B43AA
:104D80000383032303752F4F3B6801334362C362E0
:104D9000FFF7EAF8A86528656864E8653B68013BA9
:104DA0006B6523692B61EC67627A0C2313406B728D
:104DB000237A2B72264B1A68EA601D6002F050FCC1
:104DC000244B01221A702800FFF7D6FE3268917B2F
:104DD000D37B1B020B436022AB520232AB526E8E6E
:104DE0002C1D200005F09CFC010022003000FFF784
:104DF000CFF868861221280001F060FF002812D148
:104E0000280002F061F988E7134984228B5A0133A4
:104E10008B52A369002B00D17FE7833A206952426D
:104E20000021984779E700212800FFF753F974E73C
:104E300038DB0220C89D0110A8D9002034280020AA
:104E40002CDB02206CD80020D81200202028002063
:104E500090D9002041DB022048280020F8B5CE463A
:104E6000474680B507000C0099460BE027480BF039
:104E7000E5F94B46002B01D02C0003E024480BF051
:104E8000DDF92C00002C3BD0224B1E6821690879EB
:104E90004B791B0203438A7912041343C879000635
:104EA0001843FDF7AEFA05002389984623691A7B5B
:104EB000587B00021043FDF79FFA83071ED00120A4
:104EC00040442D18761B1BD425686068FEF78AFCC9
:104ED0006623FB5A9842C9D81B1A6626BB532389FE
:104EE0000D4A11885B1813802000FFF711F8BB5B97
:104EF000002BC6D0002DBCD02C00C3E70020DFE77C
:104F00002000C0BCB946B046F8BDC046E89D0110BF
:104F1000109E0110D812002024DB022070B506007C
:104F20000D0000280DD003691A7B587B0002104346
:104F3000FDF762FAC3070CD52800FEF7F6FF00253F
:104F400048E029480BF07AF92C682800FEF7E0FFCA
:104F50002500002D2BD03189244B1B68C9182C69E2
:104F60002379607900021843A27912041043E3798F
:104F70001B0603432A899B18CB1A18D4237B607B1A
:104F800000021843FDF738FAC307DDD533691C7BEF
:104F90005B7B1B021C430120FDF72EFA3269204384
:104FA00083B2FF21084010731B0A5373CCE7002D16
:104FB00010D02869037941790902194382791204D2
:104FC0001143C3791B060B433289084909685218FB
:104FD0009A1A01D4356070BD591A89B2318170684E
:104FE000FEF7BEFBF6E7C046309E01106CD80020ED
:104FF000F0B583B0041E65D0037D032B65D9B04B9B
:105000001B78DB0600D434E16023C05AA36DC518B9
:10501000616DAC4A12688E1A0DD4914258D0AA49DB
:1050200009688B4219D1A94B19688E7BCB7B1B0277
:105030003343984211D2A54B1968887BCB7B1B0266
:105040000343602163520231615A8B4201D96221CC
:10505000635262659C4B1B68A365626C9A4B1B682C
:10506000D11A3FD49A490988002900D0F9E060316B
:10507000615AA06D84466144A94200D0F1E030201D
:10508000215E002900DAECE09A4200D0E9E04323F7
:10509000E35CFF2B02D001334322A3544323E35CA0
:1050A000032B08D94822A15A628E8A1892B29142E3
:1050B00013D848216252022B00D8D2E0200001F020
:1050C00067FFCEE083480BF0B9F883480BF0B6F8E1
:1050D0007D490968591AA2D5ADE748220121494204
:1050E000A152E8E7991A012900D5B7E0216DC91A44
:1050F00000D5B3E0618B480709D504208143618363
:105100004A21605A02396052223100206052002543
:10511000422165543C21605EE18FC0100918402097
:10512000215299B292B28A1A92B2432165546364B1
:105130004823E05A0233E35A98424FD2638B1B054F
:1051400045D54239638E594389B20B1C914200D92F
:10515000131C9BB2C3189BB298423AD84822A35260
:10516000E36E5E4A216F2000FFF778FE03002067A0
:105170005B4AE16E2000FFF771FEE066216F0029B7
:105180004DD0002323860023237700284BD06422B0
:10519000A35A544D2D885B19A352638B1B0560D510
:1051A000002944D0096908794A79120202438B79AF
:1051B0001B041A43C87900061043FDF722F9E36C7B
:1051C000C01A4ED4638B484A1340638349E00221DE
:1051D000B8E7482301225242E252C1E76A23E35A68
:1051E0009A1892B2934210D86A23E2526A23E35A81
:1051F0009842B5D81B1A6A22A352638EC3189BB279
:10520000984207D8223AA352AAE76A2301225242BF
:10521000E252EBE7482301225242E252A0E7012387
:105220005B422386AFE768330022E252AFE70028F3
:105230000FD0016908794A79120202438B791B0465
:105240001A43C87900061043FDF7DBF8E36CC01A77
:1052500007D4638B244A1340638302E0200001F0EB
:1052600001FF636B002B04D0174A1268A16B8A1AE6
:1052700040D4174B1B88002B00D197E3227D062AD0
:1052800000D993E3606A0F4A1268811A012900D598
:1052900077E09B181B1A012B73D4144B5868002815
:1052A0004ED0134B99424ED889B203898B424DD3CD
:1052B0000E4A13895B1A13810289521A92B24EE088
:1052C00038DB02206CD80020D8120020A8D900209A
:1052D0002CDB0220589E0110749E0110909E01103C
:1052E000989E011024DB0220FFF7FFFF0C2800200E
:1052F000FEFF0000B74A17889BB2F81A80B23C2222
:10530000A65EF510ADB2401B81B202B2B6B28919E9
:1053100009B2A18700040FD43E23E05E8310D31AA4
:105320009BB280B21B189AB2E387C9105118402370
:10533000E152002363639CE7DA1BAA1812B2EBE781
:10534000A5480AF07BFFA5480AF078FFA4480AF0B8
:1053500075FFC91A89B2028100234381006843891D
:105360008B42F6D3FEF7E2F8636A9E4A13609E4AC8
:1053700012691371190A5171190C91711B0ED371B5
:1053800001E0121A13D4974B1F68626ABB1A00D54A
:1053900008E3238DD318DB1B012B00D502E39742D2
:1053A0000AD0656F002D00D1E8E1002609E2638B89
:1053B000022213436383E6E78B4B1D891B691A7B2B
:1053C000587B00021043FDF717F8830716D001231E
:1053D000ED18ADB2854A1580228D954210D8636FC5
:1053E000002B69D0804B1B691A7B587B000210434D
:1053F000FDF702F8C3075CD4656F90E00023E7E790
:10540000794B1B691A7B587B00021043FCF7F4FFB1
:10541000C3072FD4228D744B1A811B691A7B587BCA
:1054200000021043FCF7E8FF830703D56E4A138997
:10543000013B13816C4D29896868FEF791F92E892B
:105440002B691A7B587B00021043FCF7D5FF8307BA
:1054500029D001239B199BB2644A1380614A1268C8
:105460009B18228D616A8C4662449342B7D0604893
:105470000AF0E4FE5C4E33691A7B587B000210434D
:1054800005B25C4B1D40FCF7B7FF3E231840FCF70C
:10549000B3FF03B231692B439AB2FF2003400B7371
:1054A000120A4A73B6E70023D4E703686367FEF77E
:1054B0002FFD606F0028F8D14C4B1A88494B1B68B0
:1054C000D3186362238D9A4200D9D2E09B1A2385B8
:1054D0002000FEF7C1FC444B5B681A89002A04D007
:1054E000454A1360404B00225A603F4B1B691A7BB0
:1054F000587B00021043FCF77FFFC30700D4DEE0B7
:105500003E4A137820210B431370D8E000239B19E7
:10551000364A13802E682800FEF7FAFC3500002D6D
:1055200042D0324B18882F4B1B68C01829690B7961
:105530004E7936021E438A7912041643CB791B0634
:1055400033432A899B18C31A2ED40B7B487B000255
:105550001843FCF751FFC307DCD5234B1B691A7BAB
:10556000587B00021043FCF747FF8307D2D41E4F3D
:105570003B691E7B587B000206430120FCF73CFF81
:105580003A69304383B2FF21084010731B0A5373FA
:105590003E893B691A7B587B00021043FCF72CFFC5
:1055A0008307B3D00123B2E7002D11D029690B790D
:1055B0004A7912021A438B791B041A43CB791B06D2
:1055C0001343084A1168094A128852189A1A17D4C4
:1055D000656771E7A0D90020A09E0110B09E011060
:1055E000C09E01106CD800200C2800202CDB02206B
:1055F000D09E0110FFC0FFFF60D700203FDB0220DC
:105600005B1A9E4A138113691A7B587B0002104370
:10561000FCF7F2FE830703D5984A1389013B1381F7
:10562000964E31897068FEF79BF8378933691A7B8B
:10563000587B00021043FCF7DFFE830717D00123DD
:10564000DB199BB28E4A13808E4A12689B18286918
:105650000279417909021143827912041143C27916
:1056600012060A439342B3D087480AF0E7FD0023AD
:10567000E6E786480AF0E2FD00233DE000234CE027
:1056800083480AF0DBFD002355E0824B19600023BC
:105690006B602B691A7B587B00021043FCF7ACFE51
:1056A000C30707D57C4A137820210B431370237D51
:1056B000042B52D02B6863672800FEF729FC656F26
:1056C000002D4DD029690B794879000218438A7959
:1056D00012041043CB791B060343626A93423FD105
:1056E000684A13602E890B7B487B00021843FCF745
:1056F00083FE8307C0D001239B19626A94466344EA
:105700006362268D2F892B691A7B587B0002104318
:10571000FCF772FE8307B1D00123DB199E42AFD3A1
:105720002E892B691A7B587B00021043FCF764FE1C
:105730008307A8D001239E19238D9B1B238520005E
:10574000FEF78AFB69680B89002BA2D0514B1868C1
:1057500000289AD0FEF764F899E703332375A9E788
:10576000638BDA0706D50122934363830222134336
:10577000638329E101221343638325E13F48FEF758
:10578000DDFB606704E03D4B1A892B899A4203D800
:10579000200001F067FC17E13848FEF7CFFB002836
:1057A000F6D0002E04D030602900FFF7B7FBEFE7FA
:1057B0006067F9E7FA1A4BD42A682E00002A58D0FD
:1057C0001500002DE4D028690179427912021143B5
:1057D00083791B040B43C279120613439F42D2D034
:1057E000002EE7D031690A79944601914A79120274
:1057F000614611438C4601998A791204614611432E
:105800008C460199CA79120661460A43BA1A012ADE
:10581000D2D4DA1B012ACFD41848FEF78FFB071E1B
:10582000B6D0184B196830690379427912021A43CD
:1058300083791B041A43C3791B06134332899A18D0
:105840008A1A0FD4376029003800FFF767FB9FE7FB
:105850000A48FEF773FB00289AD060672900FFF71B
:105860005DFB95E7C91A89B231817068FDF778FF51
:10587000E8E7DB1B12D41500A3E7C0460C28002084
:105880002CDB02206CD80020089F0110449F0110DF
:10589000649F011060D700203FDB0220037B407B28
:1058A00000021843FCF7A8FDC30700D570E747487E
:1058B000FEF744FB2860002800D169E7444B1968D3
:1058C00028690379427912021A4383791B041A4327
:1058D000C3791B0613432A899A188A1A41D4238D47
:1058E000626A944663443B4A1288394909685218EF
:1058F0009B1A00D44CE72B681B691A7B587B00026B
:105900001043FCF779FDC30732D4238D626A9446B5
:1059100063449BB22E4A12689B1A2A6813812B6833
:1059200019895868FDF71CFF2B681D891B691A7BB4
:10593000587B00021043FCF75FFD830730D0012342
:105940005B199BB2234A1380214A12689B18228D4F
:10595000616A8C466244934200D119E71E480AF0FE
:105960006DFCC91A89B229816868FDF7F9FEB6E7AE
:105970002B681B691A7B587B0002104306B2174B39
:105980001E40FCF739FD3E231840FCF735FD03B2FD
:105990002A68116933439AB20B73120A4A73B4E747
:1059A0000023CDE7200001F05DFB0DE0084B1A68F5
:1059B000636AD11A04D4218D5B189B1A012B03D57D
:1059C000638B02221343638303B0F0BD0C280020D5
:1059D0006CD800202CDB0220D09E0110FFC0FFFFFE
:1059E000F0B585B0041E16D0B34B1B785A072FD5DF
:1059F000027D022A12D0436AB04909688B4216D050
:105A0000CA1A10D4028D9B185B1A0CD4438B022245
:105A10001343438307E0AA480AF010FCA94B1B6814
:105A2000016D994203D00025280005B0F0BD002A81
:105A30000BD0A54A137808210B431370638B012206
:105A4000934363830E256D42EEE7A0480AF0F6FB10
:105A50009B0704D5037D023BDBB2012B22D8638B6D
:105A6000DB0602D49A4B1B6823620023A322A354B3
:105A7000013AA3542000FFF77FF88F4B1A780223D6
:105A800018001040134205D0237D023BDBB2012BEE
:105A900000D930E2237D092B00D92EE29B008D49ED
:105AA000CB589F46438B0222134343830025BBE719
:105AB00012231340122B03D0D30673D40025B3E76F
:105AC000636C01337F4909688B42F5D17B4B1A68BF
:105AD000531C6362E36261647F4B1968887BCB7BF4
